:0400000002002B329D
:01000B0032C2
:0100130032BA
:01001B0032B2
:030023000200F7E1
:0700840075320075330075B1
:06008B003400754500750C
:06009100460075470075F2
:060097004800754900C29B
:01009D000062
:03009E0002002637
:05002600120A5980FEE2
:0800A100E5342422F88682E513
:0700A9003404540FF5341577
:0200B0003222FA
:0700B200E53260030200A12A
:0400B900758200222A
:0700BD00E53260FC0200A126
:0800C400E5472435F88699E5B3
:0700CC004704540FF547152E
:0400D30045D20022F0
:0200D700AA82FB
:0700D9007410B5450280F927
:0800E000E5462435F8A60AE507
:0700E8004604540FF5460524
:0500EF004520000302A2
:0200F40000C446
:0100F60022E7
:0C00F700C021C0E0C0F0C082C083C0D0B7
:0801030075D00810980280126B
:08010B00E5332422F8A699E572
:070113003304540FF533051E
:03011A0032800B25
:09011D00C299C200E5456003121D
:0201260000C413
:0C012800D0D0D083D082D0F0D0E0D02125
:010134003298
:020135007A004E
:0C013700E53260FCC00A1200A1AB82D0CF
:0D0143000AEA24FA40EEEA2A2A90015073DD
:0701500002016202016A02D4
:06015700017102017802B3
:05015D00017F02018694
:07016200BB43047A0180CECB
:010169002273
:07016A00BB4CCA7A0280C6FB
:07017100BB49C37A0380BF04
:07017800BB45BC7A0480B80E
:07017F00BB4EB57A0580B10B
:0D018600BB54AE7582431200D775824C1237
:0C01930000D77582491200D77582451212
:0C019F0000D775824E1200D775825412F2
:0C01AB0000D77582531200D775824512F0
:0C01B70000D77582521200D775825612D4
:0C01C30000D77582451200D775825212D9
:0801CF0000D775820A0200D777
:0901D700AA827403B549028013E9
:0E01E0007582C0C00275D0081200D775D0001D
:0501EE00D00275490379
:0501F300BAC002800506
:0501F800BADB348019A0
:0E01FD007582DB75D0081200D775D0007582B0
:0B020B00DC75D0081200D775D000226F
:0E0216007582DB75D0081200D775D000758296
:0B022400DD75D0081200D775D0002255
:0C022F008A8275D0081200D775D000221A
:0D023B007582C075D0081200D775D000750F
:0302480049002248
:0B024B00AA82E54824FC50030202B622
:05025600E548254825E4
:05025B004890026073F1
:0702600002026C02027402AD
:05026700029C02028967
:08026C00BAC047754801804249
:05027400BAC002803D4C
:05027900BADB02800663
:06027E007548038A82228C
:05028400754802802D09
:08028900BADB0575480280256F
:08029100BAC005754800801D8C
:030299008A822234
:0A029C00BADC077548037582C02222
:0A02A600BADD077548037582DB22FC
:0602B000BAC0037548000E
:0402B600758200222B
:0C02BA00E532602A75D0081200B275D041
:0C02C6000012024BAA827403B5480280AB
:0102D2001219
:0C02D300E532600E75D0081200B275D044
:0602DF000012024BAA828E
:0302E5008A8222E8
:0402E80075820022F9
:0E02EC0075D0081200BD75D00012024BAA8218
:0802FA007403B548ED8A82226D
:0C030200AA82E54B30E0068A037C0080F4
:01030E0006E8
:06030F007D008A047B0062
:0A031500E4FAFDEB2553F553EC3537
:05031F0054F554EA351D
:0503240055F555ED3513
:0403290056F556220D
:08032D00E5557004E55660215E
:09033500AA53AB547C007D00AE1C
:09033E0055AF56E4F8F9EE2AF57A
:0803470053EF3BF554E83CF5CF
:07034F0055E93DF55680D78A
:0703560085538285548322C8
:0D035D001202ECAA82C002120302D00205B7
:06036A004BE4B54B020557
:010370004C40
:030371008A82225B
:0E03740012035DAA828A037A00C002C003123F
:0E038200035DAC82D003D0027D00EC4202EDA0
:0703900042038A828B8322E5
:06039700E4F54BF54CF506
:04039D0053F554F5CB
:0403A10055F55612A6
:0B03A500035DAA82BA45EB12035D1253
:0703B000037485824D858373
:0503B7004E1203741258
:0603BC00037412035D1240
:0803C200035D85824A7401B558
:0403CA004A0280055E
:0503CE007406B54AC4ED
:0803D30012037412035D858220
:0603DB004F12035D858254
:0603E1005012035D85824D
:0603E7005112035D858246
:0703ED005212035DAA829089
:0E03F4000AA3E493FBEAB5039A12035DAA8202
:0C040200900AA4E493FBEAB50302800317
:03040E000203974F
:0E04110012035DAA82900AA5E493FBEAB503EC
:03041F0002800355
:030422000203973B
:0E04250012035DAA82900AA6E493FBEAB503D7
:0304330002800341
:0304360002039727
:0E04390012032DAA82AB83BAFF05BBFF02801F
:0104470003B1
:0304480002039715
:01044B00228E
:0E044C00AA82C0021201D7D0028A82120302D5
:07045A00054BE4B54B020560
:010461004C4E
:010462002277
:0E046300AA82AB838B82C002C00312044CD06D
:0804710003D0028A8202044C50
:06047900E4F54BF54CF523
:04047F0053F554F5E8
:0404830055F55612C3
:0C048700023B75824512044C7582001285
:07049300044C7414254DF523
:05049A004DE4354EF5B4
:05049F004E854D828531
:0904A4004E831204639000001263
:0C04AD000463900000120463758280124A
:0604B900044C854A82128A
:0A04BF00044C900AA3E493F58212A6
:0604C9000302054BE4B53F
:0404CF004B02054C8B
:0B04D300900AA4E493F58212030215C6
:0704DE004B74FFB54B021542
:0104E5004CCA
:0B04E600900AA5E493F58212030205C2
:0604F1004BE4B54B0205CF
:0104F7004CB8
:0B04F800900AA6E493F582120302159F
:070503004B74FFB54B02151C
:01050A004CA4
:07050B00854F821203020577
:060512004BE4B54B0205AD
:010518004C96
:070519008550821203021558
:070520004B74FFB54B0215FF
:010527004C87
:070528008551821203020558
:06052F004BE4B54B020590
:010535004C79
:070536008552821203021539
:07053D004B74FFB54B0215E2
:010544004C6A
:0E05450012032DAA82AB83EAF4F582EBF4F5E3
:0C05530083120463900AA3E493F5821263
:0A055F00044C900AA4E493F5821204
:0A056900044C900AA5E493F58212F9
:0A057300044C900AA6E493F58212EE
:06057D00044C854F8212C0
:06058300044C85508212B9
:06058900044C85518212B2
:06058F00044C85528202BB
:02059500044C14
:06059700E4F553F554F5F4
:04059D0055F55612A8
:0B05A100035DAA82BA082812035D1255
:0705AC000374120374858241
:0505B300588583591278
:0705B800037485825A85835C
:0C05BF005B12032DAA82AB83BAFF06BBBF
:0505CB00FF030205D151
:0105D0002208
:0705D100754D08E4F54E1220
:0605D8000479E4F553F57F
:0405DE0054F555F586
:0A05E20056F58212044C75820012D7
:0605EC00044C8559821247
:0605F2000302054BE4B515
:0405F8004B02054C61
:0805FC00AA588A8212030215BD
:070604004B74FFB54B02151A
:01060B004CA2
:07060C00855B821203020569
:060613004BE4B54B0205AB
:010619004C94
:08061A00AA5A8A82120302159C
:070622004B74FFB54B0215FC
:010629004C84
:0E062A0012032DAA82AB83EAF4F582EBF4F5FD
:080638008312046385588285DA
:06064000598312046385DA
:060646005A82855B83125D
:05064C00046302023B03
:0E065100900AA3E493FB7A00900AA4E4937D40
:0C065F00004202ED4203E4FCFDEA2553DA
:06066B00F553EB3554F5D8
:0506710054EC3555F5C5
:0506760055ED3556F5BD
:0A067B0056900AA5E493FB7A009064
:0E0685000AA6E4937D004202ED4203E4FCFD70
:07069300EA2553F553EB3596
:05069A0054F554EC359D
:05069F0055F555ED3595
:0406A40056F556AA07
:0A06A8004F8A037A00AC507D00EC8D
:0C06B2004202ED4203E4FCFDEA2553F592
:0506BE0053EB3554F57B
:0506C30054EC3555F573
:0506C80055ED3556F56B
:0806CD0056AA518A037A00AC21
:0C06D500527D00EC4202ED4203E4FCFD0B
:0706E100EA2553F553EB3548
:0506E80054F554EC354F
:0506ED0055F555ED3547
:0606F20056F556740625C2
:0506F80053F553E43549
:0506FD0054F554E43542
:0507020055F555E4353A
:0407070056F556E568
:0A070B004D24ECFAE54E34FFFBE448
:09071500FCFDEA2553F553EB3518
:05071E0054F554EC3518
:0507230055F555ED3510
:0407280056F556220A
:06072C00E4F553F554F55D
:0407320055F5561211
:0707360006511203748582D5
:05073D005E85835F12E0
:07074200037485825C8583CE
:090749005D120374AA82AB838BDC
:04075200638A6275DF
:0607560061007560001255
:0C075C000374AA82AB83E4FCFDEA426057
:08076800EB4261EC4262ED423C
:0907700063120374AA82AB838BAF
:04077900678A6675B0
:06077D0065007564001226
:0C0783000374AA82AB83E4FCFDEA42642C
:08078F00EB4265EC4266ED420D
:0C0797006712035DE582C4540F25E025C5
:0C07A300E02414FAFB7C00E54DC39BF53C
:0507AF0069E54E9CF518
:0B07B4006AC00212035DE582543FF5AD
:0507BF00681203741232
:0707C4000374120374D0025C
:0A07CB008A037C00C3E54B9BE54C5C
:0C07D5009C5009C00212035DD00280EAB3
:0607E100C3E54B954DE558
:0607E7004C954E500E126D
:0907ED00035D85826B7582001228
:0407F6000A0E80E780
:0E07FA0012032DAA82AB83BAFF05BBFF02805B
:0108080001EE
:0108090022CC
:0A080A007450B55C06E4B55D028091
:0108140003E0
:030815000208E0F6
:0A0818007402B5682C7568127401B3
:060822002560F564E435D9
:0508280061F565E435F7
:05082D0062F566E435F0
:0408320063F567758E
:0608360060FF7561FF7513
:07083C0062FF7563FFE4F5A4
:0408430069F56A02E7
:02084700092D79
:05084900E56445654572
:06084E006645677030E50D
:0608540069456A602A7587
:05085A006819AA69AB5A
:08085F006AE4FCFDEA2560F5E6
:0508670064EB3561F5B2
:05086C0065EC3562F5AA
:0508710066ED3563F5A2
:0508760067E4F560F5E8
:04087B0061F562F5CC
:04087F006302092DDA
:07088300E569456A700122DE
:06088A00756810E56062D4
:0408900064E5616258
:0408940065E5626252
:0408980066E563624C
:04089C0067E5646246
:0408A00060E5656248
:0408A40061E5666242
:0408A80062E567623C
:0408AC0063E560623E
:0408B00064E5616238
:0408B40065E5626232
:0408B80066E563622C
:0408BC0067AA69AB13
:0808C0006AE4FCFDEA2564F581
:0508C80064EB3565F54D
:0508CD0065EC3566F545
:0508D20066ED3567F53D
:0508D70067E4F569F57E
:0408DC006A02092D76
:0608E000756814E560627A
:0408E60064E5616202
:0408EA0065E56262FC
:0408EE0066E56362F6
:0408F20067E56462F0
:0408F60060E56562F2
:0408FA0061E56662EC
:0408FE0062E56762E6
:0409020063E56062E7
:0409060064E56162E1
:04090A0065E56262DB
:04090E0066E56362D5
:05091200670564E4B577
:05091700640C0565B54C
:05091C0065070566B54A
:0409210066020567FE
:06092500E4F569F56A0229
:02092B00092D94
:08092D0074142569F54DE43551
:040935006AF54E12FF
:060939000479E4F553F51A
:04093F0054F555F521
:0509430056120651856B
:060948005C82855D831254
:06094E000463855E828552
:060954005F8312046385BD
:06095A0062828563831236
:050960000463AA60AB76
:09096500618A828B831204638510
:06096E006682856783121A
:050974000463AA64AB5E
:0C097900658A828B831204637582501221
:06098500044C856882129B
:0C098B00044C902000120463C3742895F3
:070997004DE4954E503CAA0F
:06099E004BAB4C74042574
:0509A4004BF54BE435AA
:0309A9004CF54CBE
:0609AC00C3E54B954DE58B
:0609B2004C954E501E752D
:0C09B8006B00758201C002C003120A0E21
:0B09C400120302D003D002054BE4B583
:0609CF004BDB054C80D754
:0409D5008A4B8B4C72
:0E09D90012032DAA82AB83EAF4F582EBF4F54B
:0A09E7008312046390000012046301
:0609F100C3E54B954DE546
:0609F7004C954E500E75F8
:0909FD006B00758202120A0E1251
:040A0600044C80E735
:030A0A0002023BAA
:010A0D0022C6
:070A0E00AA82BA0002800A6F
:050A1500BA010280227D
:050A1A00BA0238801D46
:0A0A1F00E54D24FFFAE54E34FFFB1D
:090A2900EAB54B28EBB54C241290
:070A32000A0D7569DFE4F510
:030A39006A8019B7
:0A0A3C00E54B24D8FAE54C34FFFB2B
:0A0A4600EA24A7F582EB340AF583D9
:050A5000E493F5822291
:040A55007582002284
:0E0A5900759850438780438920758DE6758B14
:0E0A6700E6D28ED2ACD2AF75D0081201357532
:020A7500D000AF
:0A0A77001203977401B54A028007CC
:070A81007406B54AF1801272
:0A0A8800741CB54D06E4B54E028063
:010A92000261
:020A930080E2FF
:050A950012059780DD51
:050A9A0012072C80D8BA
:010AA300C092
:010AA400A8A9
:010AA500034D
:010AA600024D
:0E0AA700485454502F312E3020323030204F22
:0E0AB5004B0D0A436F6E74656E742D7479706C
:0E0AC300653A20746578742F68746D6C0D0AA6
:0E0AD1005365727665723A20796F7520776FE3
:0E0ADF00756C64206E6F74206B6E6F772061F3
:0E0AED006E797761790D0A0D0A3C68746D6CA4
:0E0AFB003E0D0A3C686561643E0D0A3C74695C
:0E0B0900746C653E57656C636F6D653C2F74B0
:0E0B170069746C653E0D0A3C2F686561643E92
:0E0B25000D0A3C626F64793E0D0A3C68313E59
:0E0B330057656C636F6D6520746F2074686584
:0E0B41002048545450504F4E47207365727632
:0E0B4F006572213C2F68313E0D0A49742073F7
:0E0B5D0065656D7320746F20776F726B206971
:0E0B6B006E646565642E0D0A3C2F626F64791E
:0D0B79003E0D0A3C2F68746D6C3E0D0A00A5
:06005A00E478FFF6D8FD7A
:080038007900E94400601B7A25
:0500400000900B867822
:030045000075A0A3
:0A00480000E493F2A308B8000205DB
:08005200A0D9F4DAF275A0FF59
:080060007800E84400600A7911
:030068000075A080
:06006B0000E4F309D8FCDB
:080071007800E84400600C79FE
:0B00790000900000E4F0A3D8FCD9FACE
:03002B0075816B71
:0A002E00120A9FE58260030200261B
:040A9F00758200223A
:00000001FF
